{
  "_format": "hh-sol-artifact-1",
  "contractName": "ProcurelyFactory",
  "sourceName": "contracts/procurely.sol",
  "abi": [
    {
      "anonymous": false,
      "inputs": [
        {
          "indexed": true,
          "internalType": "address",
          "name": "issuer",
          "type": "address"
        },
        {
          "indexed": false,
          "internalType": "address",
          "name": "contractAddress",
          "type": "address"
        }
      ],
      "name": "ProcurelyCreated",
      "type": "event"
    },
    {
      "inputs": [
        {
          "internalType": "string",
          "name": "_contractName",
          "type": "string"
        }
      ],
      "name": "createProcurely",
      "outputs": [],
      "stateMutability": "nonpayable",
      "type": "function"
    },
    {
      "inputs": [
        {
          "internalType": "address",
          "name": "",
          "type": "address"
        },
        {
          "internalType": "uint256",
          "name": "",
          "type": "uint256"
        }
      ],
      "name": "creatorContracts",
      "outputs": [
        {
          "internalType": "address",
          "name": "",
          "type": "address"
        }
      ],
      "stateMutability": "view",
      "type": "function"
    },
    {
      "inputs": [
        {
          "internalType": "address",
          "name": "_creator",
          "type": "address"
        }
      ],
      "name": "getCreatorContracts",
      "outputs": [
        {
          "internalType": "address[]",
          "name": "",
          "type": "address[]"
        }
      ],
      "stateMutability": "view",
      "type": "function"
    }
  ],
  "bytecode": "0x608060405234801561001057600080fd5b50613104806100206000396000f3fe60806040523480156200001157600080fd5b5060043610620000465760003560e01c806381791785146200004b578063cc744993146200006b578063d264e45314620000a1575b600080fd5b620000696004803603810190620000639190620004b0565b620000d7565b005b620000896004803603810190620000839190620005a1565b6200020f565b604051620000989190620005f9565b60405180910390f35b620000bf6004803603810190620000b9919062000616565b6200025e565b604051620000ce919062000716565b60405180910390f35b600033905060008183604051620000ee906200032c565b620000fb929190620007c3565b604051809103906000f08015801562000118573d6000803e3d6000fd5b5090506000803373ffffffffffffffffffffffffffffffffffffffff1673ffffffffffffffffffffffffffffffffffffffff168152602001908152602001600020819080600181540180825580915050600190039060005260206000200160009091909190916101000a81548173ffffffffffffffffffffffffffffffffffffffff021916908373ffffffffffffffffffffffffffffffffffffffff1602179055503373ffffffffffffffffffffffffffffffffffffffff167fe0bd1ddb64dc9888392ca1e816c15b3093cc8d860fe5fb95c1614dd45c722c7782604051620002029190620005f9565b60405180910390a2505050565b600060205281600052604060002081815481106200022c57600080fd5b906000526020600020016000915091509054906101000a900473ffffffffffffffffffffffffffffffffffffffff1681565b60606000808373ffffffffffffffffffffffffffffffffffffffff1673ffffffffffffffffffffffffffffffffffffffff1681526020019081526020016000208054806020026020016040519081016040528092919081815260200182805480156200032057602002820191906000526020600020905b8160009054906101000a900473ffffffffffffffffffffffffffffffffffffffff1673ffffffffffffffffffffffffffffffffffffffff1681526020019060010190808311620002d5575b50505050509050919050565b6128d780620007f883390190565b6000604051905090565b600080fd5b600080fd5b600080fd5b600080fd5b6000601f19601f8301169050919050565b7f4e487b7100000000000000000000000000000000000000000000000000000000600052604160045260246000fd5b620003a38262000358565b810181811067ffffffffffffffff82111715620003c557620003c462000369565b5b80604052505050565b6000620003da6200033a565b9050620003e8828262000398565b919050565b600067ffffffffffffffff8211156200040b576200040a62000369565b5b620004168262000358565b9050602081019050919050565b82818337600083830152505050565b6000620004496200044384620003ed565b620003ce565b90508281526020810184848401111562000468576200046762000353565b5b6200047584828562000423565b509392505050565b600082601f8301126200049557620004946200034e565b5b8135620004a784826020860162000432565b91505092915050565b600060208284031215620004c957620004c862000344565b5b600082013567ffffffffffffffff811115620004ea57620004e962000349565b5b620004f8848285016200047d565b91505092915050565b600073ffffffffffffffffffffffffffffffffffffffff82169050919050565b60006200052e8262000501565b9050919050565b620005408162000521565b81146200054c57600080fd5b50565b600081359050620005608162000535565b92915050565b6000819050919050565b6200057b8162000566565b81146200058757600080fd5b50565b6000813590506200059b8162000570565b92915050565b60008060408385031215620005bb57620005ba62000344565b5b6000620005cb858286016200054f565b9250506020620005de858286016200058a565b9150509250929050565b620005f38162000521565b82525050565b6000602082019050620006106000830184620005e8565b92915050565b6000602082840312156200062f576200062e62000344565b5b60006200063f848285016200054f565b91505092915050565b600081519050919050565b600082825260208201905092915050565b6000819050602082019050919050565b6200067f8162000521565b82525050565b600062000693838362000674565b60208301905092915050565b6000602082019050919050565b6000620006b98262000648565b620006c5818562000653565b9350620006d28362000664565b8060005b8381101562000709578151620006ed888262000685565b9750620006fa836200069f565b925050600181019050620006d6565b5085935050505092915050565b60006020820190508181036000830152620007328184620006ac565b905092915050565b600081519050919050565b600082825260208201905092915050565b60005b838110156200077657808201518184015260208101905062000759565b60008484015250505050565b60006200078f826200073a565b6200079b818562000745565b9350620007ad81856020860162000756565b620007b88162000358565b840191505092915050565b6000604082019050620007da6000830185620005e8565b8181036020830152620007ee818462000782565b9050939250505056fe60806040523480156200001157600080fd5b50604051620028d7380380620028d7833981810160405281019062000037919062000289565b816000806101000a81548173ffffffffffffffffffffffffffffffffffffffff021916908373ffffffffffffffffffffffffffffffffffffffff16021790555080600190816200008891906200053a565b50505062000621565b6000604051905090565b600080fd5b600080fd5b600073ffffffffffffffffffffffffffffffffffffffff82169050919050565b6000620000d282620000a5565b9050919050565b620000e481620000c5565b8114620000f057600080fd5b50565b6000815190506200010481620000d9565b92915050565b600080fd5b600080fd5b6000601f19601f8301169050919050565b7f4e487b7100000000000000000000000000000000000000000000000000000000600052604160045260246000fd5b6200015f8262000114565b810181811067ffffffffffffffff8211171562000181576200018062000125565b5b80604052505050565b60006200019662000091565b9050620001a4828262000154565b919050565b600067ffffffffffffffff821115620001c757620001c662000125565b5b620001d28262000114565b9050602081019050919050565b60005b83811015620001ff578082015181840152602081019050620001e2565b60008484015250505050565b6000620002226200021c84620001a9565b6200018a565b9050828152602081018484840111156200024157620002406200010f565b5b6200024e848285620001df565b509392505050565b600082601f8301126200026e576200026d6200010a565b5b8151620002808482602086016200020b565b91505092915050565b60008060408385031215620002a357620002a26200009b565b5b6000620002b385828601620000f3565b925050602083015167ffffffffffffffff811115620002d757620002d6620000a0565b5b620002e58582860162000256565b9150509250929050565b600081519050919050565b7f4e487b7100000000000000000000000000000000000000000000000000000000600052602260045260246000fd5b600060028204905060018216806200034257607f821691505b602082108103620003585762000357620002fa565b5b50919050565b60008190508160005260206000209050919050565b60006020601f8301049050919050565b600082821b905092915050565b600060088302620003c27fffffffffffffffffffffffffffffffffffffffffffffffffffffffffffffffff8262000383565b620003ce868362000383565b95508019841693508086168417925050509392505050565b6000819050919050565b6000819050919050565b60006200041b620004156200040f84620003e6565b620003f0565b620003e6565b9050919050565b6000819050919050565b6200043783620003fa565b6200044f620004468262000422565b84845462000390565b825550505050565b600090565b6200046662000457565b620004738184846200042c565b505050565b5b818110156200049b576200048f6000826200045c565b60018101905062000479565b5050565b601f821115620004ea57620004b4816200035e565b620004bf8462000373565b81016020851015620004cf578190505b620004e7620004de8562000373565b83018262000478565b50505b505050565b600082821c905092915050565b60006200050f60001984600802620004ef565b1980831691505092915050565b60006200052a8383620004fc565b9150826002028217905092915050565b6200054582620002ef565b67ffffffffffffffff81111562000561576200056062000125565b5b6200056d825462000329565b6200057a8282856200049f565b600060209050601f831160018114620005b257600084156200059d578287015190505b620005a985826200051c565b86555062000619565b601f198416620005c2866200035e565b60005b82811015620005ec57848901518255600182019150602085019450602081019050620005c5565b868310156200060c578489015162000608601f891682620004fc565b8355505b6001600288020188555050505b505050505050565b6122a680620006316000396000f3fe608060405234801561001057600080fd5b50600436106100b45760003560e01c806354b0799a1161007157806354b0799a146101a9578063582c7ffd146101c557806365ad818f146101fa57806375d0c0dc14610216578063a528ff8314610234578063a8b3272714610264576100b4565b80630585c25e146100b95780631d143848146100e95780631f058776146101075780632358c0461461012557806339c776b614610143578063465e1def14610173575b600080fd5b6100d360048036038101906100ce91906113f6565b610280565b6040516100e09190611594565b60405180910390f35b6100f16103af565b6040516100fe91906115c5565b60405180910390f35b61010f6103d3565b60405161011c91906115ef565b60405180910390f35b61012d6103d9565b60405161013a9190611742565b60405180910390f35b61015d600480360381019061015891906113f6565b6105b9565b60405161016a91906115ef565b60405180910390f35b61018d600480360381019061018891906113f6565b6105dd565b6040516101a097969594939291906117bd565b60405180910390f35b6101c360048036038101906101be919061196f565b61075c565b005b6101df60048036038101906101da91906119cb565b61093f565b6040516101f196959493929190611a0b565b60405180910390f35b610214600480360381019061020f91906113f6565b610b6e565b005b61021e610df5565b60405161022b9190611a7a565b60405180910390f35b61024e600480360381019061024991906113f6565b610e83565b60405161025b9190611bee565b60405180910390f35b61027e60048036038101906102799190611c10565b61113d565b005b610288611315565b60006003600084815260200190815260200160002090506040518060a001604052808260010160009054906101000a900473ffffffffffffffffffffffffffffffffffffffff1673ffffffffffffffffffffffffffffffffffffffff1681526020018260030180546102f990611cde565b80601f016020809104026020016040519081016040528092919081815260200182805461032590611cde565b80156103725780601f1061034757610100808354040283529160200191610372565b820191906000526020600020905b81548152906001019060200180831161035557829003601f168201915b505050505081526020018260040160009054906101000a900460ff1615158152602001826002015481526020018260050154815250915050919050565b60008054906101000a900473ffffffffffffffffffffffffffffffffffffffff1681565b60045481565b6060600060028054905067ffffffffffffffff8111156103fc576103fb611844565b5b60405190808252806020026020018201604052801561043557816020015b610422611315565b81526020019060019003908161041a5790505b50905060005b6002805490508110156105b1576000600360006002848154811061046257610461611d0f565b5b9060005260206000200154815260200190815260200160002090506040518060a001604052808260010160009054906101000a900473ffffffffffffffffffffffffffffffffffffffff1673ffffffffffffffffffffffffffffffffffffffff1681526020018260030180546104d790611cde565b80601f016020809104026020016040519081016040528092919081815260200182805461050390611cde565b80156105505780601f1061052557610100808354040283529160200191610550565b820191906000526020600020905b81548152906001019060200180831161053357829003601f168201915b505050505081526020018260040160009054906101000a900460ff161515815260200182600201548152602001826005015481525083838151811061059857610597611d0f565b5b602002602001018190525050808060010191505061043b565b508091505090565b600281815481106105c957600080fd5b906000526020600020016000915090505481565b600360205280600052604060002060009150905080600001805461060090611cde565b80601f016020809104026020016040519081016040528092919081815260200182805461062c90611cde565b80156106795780601f1061064e57610100808354040283529160200191610679565b820191906000526020600020905b81548152906001019060200180831161065c57829003601f168201915b5050505050908060010160009054906101000a900473ffffffffffffffffffffffffffffffffffffffff16908060020154908060030180546106ba90611cde565b80601f01602080910402602001604051908101604052809291908181526020018280546106e690611cde565b80156107335780601f1061070857610100808354040283529160200191610733565b820191906000526020600020905b81548152906001019060200180831161071657829003601f168201915b5050505050908060040160009054906101000a900460ff16908060050154908060080154905087565b60008054906101000a900473ffffffffffffffffffffffffffffffffffffffff1673ffffffffffffffffffffffffffffffffffffffff163373ffffffffffffffffffffffffffffffffffffffff16146107ea576040517f08c379a00000000000000000000000000000000000000000000000000000000081526004016107e190611d8a565b60405180910390fd5b600060016004546107fb9190611dd9565b9050600060036000838152602001908152602001600020905060008054906101000a900473ffffffffffffffffffffffffffffffffffffffff168160010160006101000a81548173ffffffffffffffffffffffffffffffffffffffff021916908373ffffffffffffffffffffffffffffffffffffffff160217905550838160030190816108889190611fb9565b5060008160040160006101000a81548160ff0219169083151502179055506000816005018190555062093a80836108bf919061208b565b426108ca9190611dd9565b81600201819055508160048190555060028290806001815401808255809150506001900390600052602060002001600090919091909150557f21ff7b542b7c2f588713d83e6eb3bc330742c893f573117e95749bdad7e5f70b8260405161093191906115ef565b60405180910390a150505050565b600080606060008060606000600360008a815260200190815260200160002060060160008981526020019081526020016000206040518060c00160405290816000820160009054906101000a900473ffffffffffffffffffffffffffffffffffffffff1673ffffffffffffffffffffffffffffffffffffffff1673ffffffffffffffffffffffffffffffffffffffff168152602001600182015481526020016002820180546109ed90611cde565b80601f0160208091040260200160405190810160405280929190818152602001828054610a1990611cde565b8015610a665780601f10610a3b57610100808354040283529160200191610a66565b820191906000526020600020905b815481529060010190602001808311610a4957829003601f168201915b505050505081526020016003820160009054906101000a900460ff161515151581526020016003820160019054906101000a900460ff16151515158152602001600482018054610ab590611cde565b80601f0160208091040260200160405190810160405280929190818152602001828054610ae190611cde565b8015610b2e5780601f10610b0357610100808354040283529160200191610b2e565b820191906000526020600020905b815481529060010190602001808311610b1157829003601f168201915b5050505050815250509050806000015181602001518260400151836060015184608001518560a00151965096509650965096509650509295509295509295565b60008054906101000a900473ffffffffffffffffffffffffffffffffffffffff1673ffffffffffffffffffffffffffffffffffffffff163373ffffffffffffffffffffffffffffffffffffffff1614610bfc576040517f08c379a0000000000000000000000000000000000000000000000000000000008152600401610bf390611d8a565b60405180910390fd5b60006003600083815260200190815260200160002090508060010160009054906101000a900473ffffffffffffffffffffffffffffffffffffffff1673ffffffffffffffffffffffffffffffffffffffff163373ffffffffffffffffffffffffffffffffffffffff1614610ca5576040517f08c379a0000000000000000000000000000000000000000000000000000000008152600401610c9c9061213f565b60405180910390fd5b8060040160009054906101000a900460ff1615610cf7576040517f08c379a0000000000000000000000000000000000000000000000000000000008152600401610cee906121ab565b60405180910390fd5b60018160040160006101000a81548160ff02191690831515021790555060008080600190505b83600501548111610d7a5782846006016000838152602001908152602001600020600101541115610d67578360060160008281526020019081526020016000206001015492508091505b8080610d72906121cb565b915050610d1d565b506000811115610def57600183600601600083815260200190815260200160002060030160016101000a81548160ff0219169083151502179055507fac1505714acfa2159d4dc92ea77b5a2ae135e2c5ab010686b3036c575b06f59b8482604051610de6929190612213565b60405180910390a15b50505050565b60018054610e0290611cde565b80601f0160208091040260200160405190810160405280929190818152602001828054610e2e90611cde565b8015610e7b5780601f10610e5057610100808354040283529160200191610e7b565b820191906000526020600020905b815481529060010190602001808311610e5e57829003601f168201915b505050505081565b606060006003600084815260200190815260200160002090506000816007018054905067ffffffffffffffff811115610ebf57610ebe611844565b5b604051908082528060200260200182016040528015610ef857816020015b610ee561135c565b815260200190600190039081610edd5790505b50905060005b826007018054905081101561113257826006016000846007018381548110610f2957610f28611d0f565b5b906000526020600020015481526020019081526020016000206040518060c00160405290816000820160009054906101000a900473ffffffffffffffffffffffffffffffffffffffff1673ffffffffffffffffffffffffffffffffffffffff1673ffffffffffffffffffffffffffffffffffffffff16815260200160018201548152602001600282018054610fbd90611cde565b80601f0160208091040260200160405190810160405280929190818152602001828054610fe990611cde565b80156110365780601f1061100b57610100808354040283529160200191611036565b820191906000526020600020905b81548152906001019060200180831161101957829003601f168201915b505050505081526020016003820160009054906101000a900460ff161515151581526020016003820160019054906101000a900460ff1615151515815260200160048201805461108590611cde565b80601f01602080910402602001604051908101604052809291908181526020018280546110b190611cde565b80156110fe5780601f106110d3576101008083540402835291602001916110fe565b820191906000526020600020905b8154815290600101906020018083116110e157829003601f168201915b50505050508152505082828151811061111a57611119611d0f565b5b60200260200101819052508080600101915050610efe565b508092505050919050565b60006040518060c001604052803373ffffffffffffffffffffffffffffffffffffffff1681526020018581526020018481526020016000151581526020016000151581526020018381525090506000600360008781526020019081526020016000209050818160060160008360050154815260200190815260200160002060008201518160000160006101000a81548173ffffffffffffffffffffffffffffffffffffffff021916908373ffffffffffffffffffffffffffffffffffffffff1602179055506020820151816001015560408201518160020190816112219190611fb9565b5060608201518160030160006101000a81548160ff02191690831515021790555060808201518160030160016101000a81548160ff02191690831515021790555060a08201518160040190816112779190611fb9565b5090505080600701816005015490806001815401808255809150506001900390600052602060002001600090919091909150558060050160008154809291906112bf906121cb565b91905055507f0fc69407039e8ba8cdd517e2a4cae9dd19697b0a500ff37a2425c59ebc649b3186600183600501546112f7919061223c565b604051611305929190612213565b60405180910390a1505050505050565b6040518060a00160405280600073ffffffffffffffffffffffffffffffffffffffff1681526020016060815260200160001515815260200160008152602001600081525090565b6040518060c00160405280600073ffffffffffffffffffffffffffffffffffffffff1681526020016000815260200160608152602001600015158152602001600015158152602001606081525090565b6000604051905090565b600080fd5b600080fd5b6000819050919050565b6113d3816113c0565b81146113de57600080fd5b50565b6000813590506113f0816113ca565b92915050565b60006020828403121561140c5761140b6113b6565b5b600061141a848285016113e1565b91505092915050565b600073ffffffffffffffffffffffffffffffffffffffff82169050919050565b600061144e82611423565b9050919050565b61145e81611443565b82525050565b600081519050919050565b600082825260208201905092915050565b60005b8381101561149e578082015181840152602081019050611483565b60008484015250505050565b6000601f19601f8301169050919050565b60006114c682611464565b6114d0818561146f565b93506114e0818560208601611480565b6114e9816114aa565b840191505092915050565b60008115159050919050565b611509816114f4565b82525050565b611518816113c0565b82525050565b600060a0830160008301516115366000860182611455565b506020830151848203602086015261154e82826114bb565b91505060408301516115636040860182611500565b506060830151611576606086018261150f565b506080830151611589608086018261150f565b508091505092915050565b600060208201905081810360008301526115ae818461151e565b905092915050565b6115bf81611443565b82525050565b60006020820190506115da60008301846115b6565b92915050565b6115e9816113c0565b82525050565b600060208201905061160460008301846115e0565b92915050565b600081519050919050565b600082825260208201905092915050565b6000819050602082019050919050565b600060a08301600083015161164e6000860182611455565b506020830151848203602086015261166682826114bb565b915050604083015161167b6040860182611500565b50606083015161168e606086018261150f565b5060808301516116a1608086018261150f565b508091505092915050565b60006116b88383611636565b905092915050565b6000602082019050919050565b60006116d88261160a565b6116e28185611615565b9350836020820285016116f485611626565b8060005b85811015611730578484038952815161171185826116ac565b945061171c836116c0565b925060208a019950506001810190506116f8565b50829750879550505050505092915050565b6000602082019050818103600083015261175c81846116cd565b905092915050565b600082825260208201905092915050565b600061178082611464565b61178a8185611764565b935061179a818560208601611480565b6117a3816114aa565b840191505092915050565b6117b7816114f4565b82525050565b600060e08201905081810360008301526117d7818a611775565b90506117e660208301896115b6565b6117f360408301886115e0565b81810360608301526118058187611775565b905061181460808301866117ae565b61182160a08301856115e0565b61182e60c08301846115e0565b98975050505050505050565b600080fd5b600080fd5b7f4e487b7100000000000000000000000000000000000000000000000000000000600052604160045260246000fd5b61187c826114aa565b810181811067ffffffffffffffff8211171561189b5761189a611844565b5b80604052505050565b60006118ae6113ac565b90506118ba8282611873565b919050565b600067ffffffffffffffff8211156118da576118d9611844565b5b6118e3826114aa565b9050602081019050919050565b82818337600083830152505050565b600061191261190d846118bf565b6118a4565b90508281526020810184848401111561192e5761192d61183f565b5b6119398482856118f0565b509392505050565b600082601f8301126119565761195561183a565b5b81356119668482602086016118ff565b91505092915050565b60008060408385031215611986576119856113b6565b5b600083013567ffffffffffffffff8111156119a4576119a36113bb565b5b6119b085828601611941565b92505060206119c1858286016113e1565b9150509250929050565b600080604083850312156119e2576119e16113b6565b5b60006119f0858286016113e1565b9250506020611a01858286016113e1565b9150509250929050565b600060c082019050611a2060008301896115b6565b611a2d60208301886115e0565b8181036040830152611a3f8187611775565b9050611a4e60608301866117ae565b611a5b60808301856117ae565b81810360a0830152611a6d8184611775565b9050979650505050505050565b60006020820190508181036000830152611a948184611775565b905092915050565b600081519050919050565b600082825260208201905092915050565b6000819050602082019050919050565b600060c083016000830151611ae06000860182611455565b506020830151611af3602086018261150f565b5060408301518482036040860152611b0b82826114bb565b9150506060830151611b206060860182611500565b506080830151611b336080860182611500565b5060a083015184820360a0860152611b4b82826114bb565b9150508091505092915050565b6000611b648383611ac8565b905092915050565b6000602082019050919050565b6000611b8482611a9c565b611b8e8185611aa7565b935083602082028501611ba085611ab8565b8060005b85811015611bdc5784840389528151611bbd8582611b58565b9450611bc883611b6c565b925060208a01995050600181019050611ba4565b50829750879550505050505092915050565b60006020820190508181036000830152611c088184611b79565b905092915050565b60008060008060808587031215611c2a57611c296113b6565b5b6000611c38878288016113e1565b9450506020611c49878288016113e1565b935050604085013567ffffffffffffffff811115611c6a57611c696113bb565b5b611c7687828801611941565b925050606085013567ffffffffffffffff811115611c9757611c966113bb565b5b611ca387828801611941565b91505092959194509250565b7f4e487b7100000000000000000000000000000000000000000000000000000000600052602260045260246000fd5b60006002820490506001821680611cf657607f821691505b602082108103611d0957611d08611caf565b5b50919050565b7f4e487b7100000000000000000000000000000000000000000000000000000000600052603260045260246000fd5b7f4e6f7420616e2069737375657200000000000000000000000000000000000000600082015250565b6000611d74600d83611764565b9150611d7f82611d3e565b602082019050919050565b60006020820190508181036000830152611da381611d67565b9050919050565b7f4e487b7100000000000000000000000000000000000000000000000000000000600052601160045260246000fd5b6000611de4826113c0565b9150611def836113c0565b9250828201905080821115611e0757611e06611daa565b5b92915050565b60008190508160005260206000209050919050565b60006020601f8301049050919050565b600082821b905092915050565b600060088302611e6f7fffffffffffffffffffffffffffffffffffffffffffffffffffffffffffffffff82611e32565b611e798683611e32565b95508019841693508086168417925050509392505050565b6000819050919050565b6000611eb6611eb1611eac846113c0565b611e91565b6113c0565b9050919050565b6000819050919050565b611ed083611e9b565b611ee4611edc82611ebd565b848454611e3f565b825550505050565b600090565b611ef9611eec565b611f04818484611ec7565b505050565b5b81811015611f2857611f1d600082611ef1565b600181019050611f0a565b5050565b601f821115611f6d57611f3e81611e0d565b611f4784611e22565b81016020851015611f56578190505b611f6a611f6285611e22565b830182611f09565b50505b505050565b600082821c905092915050565b6000611f9060001984600802611f72565b1980831691505092915050565b6000611fa98383611f7f565b9150826002028217905092915050565b611fc282611464565b67ffffffffffffffff811115611fdb57611fda611844565b5b611fe58254611cde565b611ff0828285611f2c565b600060209050601f8311600181146120235760008415612011578287015190505b61201b8582611f9d565b865550612083565b601f19841661203186611e0d565b60005b8281101561205957848901518255600182019150602085019450602081019050612034565b868310156120765784890151612072601f891682611f7f565b8355505b6001600288020188555050505b505050505050565b6000612096826113c0565b91506120a1836113c0565b92508282026120af816113c0565b915082820484148315176120c6576120c5611daa565b5b5092915050565b7f4f6e6c7920746865206973737565722063616e20636c6f73652074686520746560008201527f6e64657200000000000000000000000000000000000000000000000000000000602082015250565b6000612129602483611764565b9150612134826120cd565b604082019050919050565b600060208201905081810360008301526121588161211c565b9050919050565b7f54656e64657220616c726561647920636c6f7365640000000000000000000000600082015250565b6000612195601583611764565b91506121a08261215f565b602082019050919050565b600060208201905081810360008301526121c481612188565b9050919050565b60006121d6826113c0565b91507fffffffffffffffffffffffffffffffffffffffffffffffffffffffffffffffff820361220857612207611daa565b5b600182019050919050565b600060408201905061222860008301856115e0565b61223560208301846115e0565b9392505050565b6000612247826113c0565b9150612252836113c0565b925082820390508181111561226a57612269611daa565b5b9291505056fea26469706673582212205237b5a566b8cda83632c1ffc296f940e98473772575ced9b5df897c4952115364736f6c63430008180033a2646970667358221220ad724e614882803165adf8e1b75fb1e9f26d2de1979f150874ebe239fdc6004264736f6c63430008180033",
  "linkReferences": {},
  "deployedLinkReferences": {}
}