{
  "_format": "hh-sol-artifact-1",
  "contractName": "Procurely",
  "sourceName": "contracts/procurely.sol",
  "abi": [
    {
      "inputs": [
        {
          "internalType": "address",
          "name": "_issuer",
          "type": "address"
        }
      ],
      "stateMutability": "nonpayable",
      "type": "constructor"
    },
    {
      "anonymous": false,
      "inputs": [
        {
          "indexed": false,
          "internalType": "uint256",
          "name": "tenderId",
          "type": "uint256"
        },
        {
          "indexed": false,
          "internalType": "uint256",
          "name": "bidId",
          "type": "uint256"
        }
      ],
      "name": "BidPlaced",
      "type": "event"
    },
    {
      "anonymous": false,
      "inputs": [
        {
          "indexed": false,
          "internalType": "uint256",
          "name": "tenderId",
          "type": "uint256"
        }
      ],
      "name": "TenderCreated",
      "type": "event"
    },
    {
      "anonymous": false,
      "inputs": [
        {
          "indexed": false,
          "internalType": "uint256",
          "name": "tenderId",
          "type": "uint256"
        },
        {
          "indexed": false,
          "internalType": "uint256",
          "name": "winningBidId",
          "type": "uint256"
        }
      ],
      "name": "TenderEvaluated",
      "type": "event"
    },
    {
      "inputs": [
        {
          "internalType": "uint256",
          "name": "_tenderId",
          "type": "uint256"
        }
      ],
      "name": "closeAndEvaluateTender",
      "outputs": [],
      "stateMutability": "nonpayable",
      "type": "function"
    },
    {
      "inputs": [
        {
          "internalType": "string",
          "name": "_details",
          "type": "string"
        },
        {
          "internalType": "uint256",
          "name": "deadline",
          "type": "uint256"
        }
      ],
      "name": "createTender",
      "outputs": [],
      "stateMutability": "nonpayable",
      "type": "function"
    },
    {
      "inputs": [
        {
          "internalType": "uint256",
          "name": "_tenderId",
          "type": "uint256"
        }
      ],
      "name": "getAllBids",
      "outputs": [
        {
          "components": [
            {
              "internalType": "address",
              "name": "bidder",
              "type": "address"
            },
            {
              "internalType": "uint256",
              "name": "amount",
              "type": "uint256"
            },
            {
              "internalType": "string",
              "name": "details",
              "type": "string"
            },
            {
              "internalType": "bool",
              "name": "isEvaluated",
              "type": "bool"
            },
            {
              "internalType": "bool",
              "name": "isWinner",
              "type": "bool"
            },
            {
              "internalType": "string",
              "name": "businessName",
              "type": "string"
            }
          ],
          "internalType": "struct Procurely.Bid[]",
          "name": "",
          "type": "tuple[]"
        }
      ],
      "stateMutability": "view",
      "type": "function"
    },
    {
      "inputs": [],
      "name": "getAllTenders",
      "outputs": [
        {
          "components": [
            {
              "internalType": "address",
              "name": "issuer",
              "type": "address"
            },
            {
              "internalType": "string",
              "name": "details",
              "type": "string"
            },
            {
              "internalType": "bool",
              "name": "isClosed",
              "type": "bool"
            },
            {
              "internalType": "uint256",
              "name": "deadline",
              "type": "uint256"
            },
            {
              "internalType": "uint256",
              "name": "bidCount",
              "type": "uint256"
            }
          ],
          "internalType": "struct Procurely.TenderDetails[]",
          "name": "",
          "type": "tuple[]"
        }
      ],
      "stateMutability": "view",
      "type": "function"
    },
    {
      "inputs": [
        {
          "internalType": "uint256",
          "name": "_tenderId",
          "type": "uint256"
        },
        {
          "internalType": "uint256",
          "name": "_bidId",
          "type": "uint256"
        }
      ],
      "name": "getBid",
      "outputs": [
        {
          "internalType": "address",
          "name": "",
          "type": "address"
        },
        {
          "internalType": "uint256",
          "name": "",
          "type": "uint256"
        },
        {
          "internalType": "string",
          "name": "",
          "type": "string"
        },
        {
          "internalType": "bool",
          "name": "",
          "type": "bool"
        },
        {
          "internalType": "bool",
          "name": "",
          "type": "bool"
        },
        {
          "internalType": "string",
          "name": "",
          "type": "string"
        }
      ],
      "stateMutability": "view",
      "type": "function"
    },
    {
      "inputs": [
        {
          "internalType": "uint256",
          "name": "_tenderId",
          "type": "uint256"
        }
      ],
      "name": "getTender",
      "outputs": [
        {
          "components": [
            {
              "internalType": "address",
              "name": "issuer",
              "type": "address"
            },
            {
              "internalType": "string",
              "name": "details",
              "type": "string"
            },
            {
              "internalType": "bool",
              "name": "isClosed",
              "type": "bool"
            },
            {
              "internalType": "uint256",
              "name": "deadline",
              "type": "uint256"
            },
            {
              "internalType": "uint256",
              "name": "bidCount",
              "type": "uint256"
            }
          ],
          "internalType": "struct Procurely.TenderDetails",
          "name": "",
          "type": "tuple"
        }
      ],
      "stateMutability": "view",
      "type": "function"
    },
    {
      "inputs": [],
      "name": "issuer",
      "outputs": [
        {
          "internalType": "address",
          "name": "",
          "type": "address"
        }
      ],
      "stateMutability": "view",
      "type": "function"
    },
    {
      "inputs": [
        {
          "internalType": "uint256",
          "name": "_tenderId",
          "type": "uint256"
        },
        {
          "internalType": "uint256",
          "name": "_amount",
          "type": "uint256"
        },
        {
          "internalType": "string",
          "name": "_details",
          "type": "string"
        },
        {
          "internalType": "string",
          "name": "_businessName",
          "type": "string"
        }
      ],
      "name": "placeBid",
      "outputs": [],
      "stateMutability": "nonpayable",
      "type": "function"
    },
    {
      "inputs": [],
      "name": "tenderCount",
      "outputs": [
        {
          "internalType": "uint256",
          "name": "",
          "type": "uint256"
        }
      ],
      "stateMutability": "view",
      "type": "function"
    },
    {
      "inputs": [
        {
          "internalType": "uint256",
          "name": "",
          "type": "uint256"
        }
      ],
      "name": "tenderIds",
      "outputs": [
        {
          "internalType": "uint256",
          "name": "",
          "type": "uint256"
        }
      ],
      "stateMutability": "view",
      "type": "function"
    },
    {
      "inputs": [
        {
          "internalType": "uint256",
          "name": "",
          "type": "uint256"
        }
      ],
      "name": "tenders",
      "outputs": [
        {
          "internalType": "address",
          "name": "issuer",
          "type": "address"
        },
        {
          "internalType": "uint256",
          "name": "deadline",
          "type": "uint256"
        },
        {
          "internalType": "string",
          "name": "details",
          "type": "string"
        },
        {
          "internalType": "bool",
          "name": "isClosed",
          "type": "bool"
        },
        {
          "internalType": "uint256",
          "name": "bidCount",
          "type": "uint256"
        },
        {
          "internalType": "uint256",
          "name": "tenderId",
          "type": "uint256"
        }
      ],
      "stateMutability": "view",
      "type": "function"
    }
  ],
  "bytecode": "0x60806040523480156200001157600080fd5b5060405162002253380380620022538339818101604052810190620000379190620000e8565b806000806101000a81548173ffffffffffffffffffffffffffffffffffffffff021916908373ffffffffffffffffffffffffffffffffffffffff160217905550506200011a565b600080fd5b600073ffffffffffffffffffffffffffffffffffffffff82169050919050565b6000620000b08262000083565b9050919050565b620000c281620000a3565b8114620000ce57600080fd5b50565b600081519050620000e281620000b7565b92915050565b6000602082840312156200010157620001006200007e565b5b60006200011184828501620000d1565b91505092915050565b612129806200012a6000396000f3fe608060405234801561001057600080fd5b50600436106100a95760003560e01c8063465e1def11610071578063465e1def1461016857806354b0799a1461019d578063582c7ffd146101b957806365ad818f146101ee578063a528ff831461020a578063a8b327271461023a576100a9565b80630585c25e146100ae5780631d143848146100de5780631f058776146100fc5780632358c0461461011a57806339c776b614610138575b600080fd5b6100c860048036038101906100c391906112b0565b610256565b6040516100d5919061144e565b60405180910390f35b6100e6610385565b6040516100f3919061147f565b60405180910390f35b6101046103a9565b60405161011191906114a9565b60405180910390f35b6101226103af565b60405161012f91906115fc565b60405180910390f35b610152600480360381019061014d91906112b0565b61058f565b60405161015f91906114a9565b60405180910390f35b610182600480360381019061017d91906112b0565b6105b3565b60405161019496959493929190611677565b60405180910390f35b6101b760048036038101906101b29190611814565b6106a4565b005b6101d360048036038101906101ce9190611870565b610887565b6040516101e5969594939291906118b0565b60405180910390f35b610208600480360381019061020391906112b0565b610ab6565b005b610224600480360381019061021f91906112b0565b610d3d565b6040516102319190611a71565b60405180910390f35b610254600480360381019061024f9190611a93565b610ff7565b005b61025e6111cf565b60006002600084815260200190815260200160002090506040518060a001604052808260000160009054906101000a900473ffffffffffffffffffffffffffffffffffffffff1673ffffffffffffffffffffffffffffffffffffffff1681526020018260020180546102cf90611b61565b80601f01602080910402602001604051908101604052809291908181526020018280546102fb90611b61565b80156103485780601f1061031d57610100808354040283529160200191610348565b820191906000526020600020905b81548152906001019060200180831161032b57829003601f168201915b505050505081526020018260030160009054906101000a900460ff1615158152602001826001015481526020018260040154815250915050919050565b60008054906101000a900473ffffffffffffffffffffffffffffffffffffffff1681565b60035481565b6060600060018054905067ffffffffffffffff8111156103d2576103d16116e9565b5b60405190808252806020026020018201604052801561040b57816020015b6103f86111cf565b8152602001906001900390816103f05790505b50905060005b600180549050811015610587576000600260006001848154811061043857610437611b92565b5b9060005260206000200154815260200190815260200160002090506040518060a001604052808260000160009054906101000a900473ffffffffffffffffffffffffffffffffffffffff1673ffffffffffffffffffffffffffffffffffffffff1681526020018260020180546104ad90611b61565b80601f01602080910402602001604051908101604052809291908181526020018280546104d990611b61565b80156105265780601f106104fb57610100808354040283529160200191610526565b820191906000526020600020905b81548152906001019060200180831161050957829003601f168201915b505050505081526020018260030160009054906101000a900460ff161515815260200182600101548152602001826004015481525083838151811061056e5761056d611b92565b5b6020026020010181905250508080600101915050610411565b508091505090565b6001818154811061059f57600080fd5b906000526020600020016000915090505481565b60026020528060005260406000206000915090508060000160009054906101000a900473ffffffffffffffffffffffffffffffffffffffff169080600101549080600201805461060290611b61565b80601f016020809104026020016040519081016040528092919081815260200182805461062e90611b61565b801561067b5780601f106106505761010080835404028352916020019161067b565b820191906000526020600020905b81548152906001019060200180831161065e57829003601f168201915b5050505050908060030160009054906101000a900460ff16908060040154908060070154905086565b60008054906101000a900473ffffffffffffffffffffffffffffffffffffffff1673ffffffffffffffffffffffffffffffffffffffff163373ffffffffffffffffffffffffffffffffffffffff1614610732576040517f08c379a000000000000000000000000000000000000000000000000000000000815260040161072990611c0d565b60405180910390fd5b600060016003546107439190611c5c565b9050600060026000838152602001908152602001600020905060008054906101000a900473ffffffffffffffffffffffffffffffffffffffff168160000160006101000a81548173ffffffffffffffffffffffffffffffffffffffff021916908373ffffffffffffffffffffffffffffffffffffffff160217905550838160020190816107d09190611e3c565b5060008160030160006101000a81548160ff0219169083151502179055506000816004018190555062093a80836108079190611f0e565b426108129190611c5c565b81600101819055508160038190555060018290806001815401808255809150506001900390600052602060002001600090919091909150557f21ff7b542b7c2f588713d83e6eb3bc330742c893f573117e95749bdad7e5f70b8260405161087991906114a9565b60405180910390a150505050565b600080606060008060606000600260008a815260200190815260200160002060050160008981526020019081526020016000206040518060c00160405290816000820160009054906101000a900473ffffffffffffffffffffffffffffffffffffffff1673ffffffffffffffffffffffffffffffffffffffff1673ffffffffffffffffffffffffffffffffffffffff1681526020016001820154815260200160028201805461093590611b61565b80601f016020809104026020016040519081016040528092919081815260200182805461096190611b61565b80156109ae5780601f10610983576101008083540402835291602001916109ae565b820191906000526020600020905b81548152906001019060200180831161099157829003601f168201915b505050505081526020016003820160009054906101000a900460ff161515151581526020016003820160019054906101000a900460ff161515151581526020016004820180546109fd90611b61565b80601f0160208091040260200160405190810160405280929190818152602001828054610a2990611b61565b8015610a765780601f10610a4b57610100808354040283529160200191610a76565b820191906000526020600020905b815481529060010190602001808311610a5957829003601f168201915b5050505050815250509050806000015181602001518260400151836060015184608001518560a00151965096509650965096509650509295509295509295565b60008054906101000a900473ffffffffffffffffffffffffffffffffffffffff1673ffffffffffffffffffffffffffffffffffffffff163373ffffffffffffffffffffffffffffffffffffffff1614610b44576040517f08c379a0000000000000000000000000000000000000000000000000000000008152600401610b3b90611c0d565b60405180910390fd5b60006002600083815260200190815260200160002090508060000160009054906101000a900473ffffffffffffffffffffffffffffffffffffffff1673ffffffffffffffffffffffffffffffffffffffff163373ffffffffffffffffffffffffffffffffffffffff1614610bed576040517f08c379a0000000000000000000000000000000000000000000000000000000008152600401610be490611fc2565b60405180910390fd5b8060030160009054906101000a900460ff1615610c3f576040517f08c379a0000000000000000000000000000000000000000000000000000000008152600401610c369061202e565b60405180910390fd5b60018160030160006101000a81548160ff02191690831515021790555060008080600190505b83600401548111610cc25782846005016000838152602001908152602001600020600101541115610caf578360050160008281526020019081526020016000206001015492508091505b8080610cba9061204e565b915050610c65565b506000811115610d3757600183600501600083815260200190815260200160002060030160016101000a81548160ff0219169083151502179055507fac1505714acfa2159d4dc92ea77b5a2ae135e2c5ab010686b3036c575b06f59b8482604051610d2e929190612096565b60405180910390a15b50505050565b606060006002600084815260200190815260200160002090506000816006018054905067ffffffffffffffff811115610d7957610d786116e9565b5b604051908082528060200260200182016040528015610db257816020015b610d9f611216565b815260200190600190039081610d975790505b50905060005b8260060180549050811015610fec57826005016000846006018381548110610de357610de2611b92565b5b906000526020600020015481526020019081526020016000206040518060c00160405290816000820160009054906101000a900473ffffffffffffffffffffffffffffffffffffffff1673ffffffffffffffffffffffffffffffffffffffff1673ffffffffffffffffffffffffffffffffffffffff16815260200160018201548152602001600282018054610e7790611b61565b80601f0160208091040260200160405190810160405280929190818152602001828054610ea390611b61565b8015610ef05780601f10610ec557610100808354040283529160200191610ef0565b820191906000526020600020905b815481529060010190602001808311610ed357829003601f168201915b505050505081526020016003820160009054906101000a900460ff161515151581526020016003820160019054906101000a900460ff16151515158152602001600482018054610f3f90611b61565b80601f0160208091040260200160405190810160405280929190818152602001828054610f6b90611b61565b8015610fb85780601f10610f8d57610100808354040283529160200191610fb8565b820191906000526020600020905b815481529060010190602001808311610f9b57829003601f168201915b505050505081525050828281518110610fd457610fd3611b92565b5b60200260200101819052508080600101915050610db8565b508092505050919050565b60006040518060c001604052803373ffffffffffffffffffffffffffffffffffffffff1681526020018581526020018481526020016000151581526020016000151581526020018381525090506000600260008781526020019081526020016000209050818160050160008360040154815260200190815260200160002060008201518160000160006101000a81548173ffffffffffffffffffffffffffffffffffffffff021916908373ffffffffffffffffffffffffffffffffffffffff1602179055506020820151816001015560408201518160020190816110db9190611e3c565b5060608201518160030160006101000a81548160ff02191690831515021790555060808201518160030160016101000a81548160ff02191690831515021790555060a08201518160040190816111319190611e3c565b5090505080600601816004015490806001815401808255809150506001900390600052602060002001600090919091909150558060040160008154809291906111799061204e565b91905055507f0fc69407039e8ba8cdd517e2a4cae9dd19697b0a500ff37a2425c59ebc649b3186600183600401546111b191906120bf565b6040516111bf929190612096565b60405180910390a1505050505050565b6040518060a00160405280600073ffffffffffffffffffffffffffffffffffffffff1681526020016060815260200160001515815260200160008152602001600081525090565b6040518060c00160405280600073ffffffffffffffffffffffffffffffffffffffff1681526020016000815260200160608152602001600015158152602001600015158152602001606081525090565b6000604051905090565b600080fd5b600080fd5b6000819050919050565b61128d8161127a565b811461129857600080fd5b50565b6000813590506112aa81611284565b92915050565b6000602082840312156112c6576112c5611270565b5b60006112d48482850161129b565b91505092915050565b600073ffffffffffffffffffffffffffffffffffffffff82169050919050565b6000611308826112dd565b9050919050565b611318816112fd565b82525050565b600081519050919050565b600082825260208201905092915050565b60005b8381101561135857808201518184015260208101905061133d565b60008484015250505050565b6000601f19601f8301169050919050565b60006113808261131e565b61138a8185611329565b935061139a81856020860161133a565b6113a381611364565b840191505092915050565b60008115159050919050565b6113c3816113ae565b82525050565b6113d28161127a565b82525050565b600060a0830160008301516113f0600086018261130f565b50602083015184820360208601526114088282611375565b915050604083015161141d60408601826113ba565b50606083015161143060608601826113c9565b50608083015161144360808601826113c9565b508091505092915050565b6000602082019050818103600083015261146881846113d8565b905092915050565b611479816112fd565b82525050565b60006020820190506114946000830184611470565b92915050565b6114a38161127a565b82525050565b60006020820190506114be600083018461149a565b92915050565b600081519050919050565b600082825260208201905092915050565b6000819050602082019050919050565b600060a083016000830151611508600086018261130f565b50602083015184820360208601526115208282611375565b915050604083015161153560408601826113ba565b50606083015161154860608601826113c9565b50608083015161155b60808601826113c9565b508091505092915050565b600061157283836114f0565b905092915050565b6000602082019050919050565b6000611592826114c4565b61159c81856114cf565b9350836020820285016115ae856114e0565b8060005b858110156115ea57848403895281516115cb8582611566565b94506115d68361157a565b925060208a019950506001810190506115b2565b50829750879550505050505092915050565b600060208201905081810360008301526116168184611587565b905092915050565b600082825260208201905092915050565b600061163a8261131e565b611644818561161e565b935061165481856020860161133a565b61165d81611364565b840191505092915050565b611671816113ae565b82525050565b600060c08201905061168c6000830189611470565b611699602083018861149a565b81810360408301526116ab818761162f565b90506116ba6060830186611668565b6116c7608083018561149a565b6116d460a083018461149a565b979650505050505050565b600080fd5b600080fd5b7f4e487b7100000000000000000000000000000000000000000000000000000000600052604160045260246000fd5b61172182611364565b810181811067ffffffffffffffff821117156117405761173f6116e9565b5b80604052505050565b6000611753611266565b905061175f8282611718565b919050565b600067ffffffffffffffff82111561177f5761177e6116e9565b5b61178882611364565b9050602081019050919050565b82818337600083830152505050565b60006117b76117b284611764565b611749565b9050828152602081018484840111156117d3576117d26116e4565b5b6117de848285611795565b509392505050565b600082601f8301126117fb576117fa6116df565b5b813561180b8482602086016117a4565b91505092915050565b6000806040838503121561182b5761182a611270565b5b600083013567ffffffffffffffff81111561184957611848611275565b5b611855858286016117e6565b92505060206118668582860161129b565b9150509250929050565b6000806040838503121561188757611886611270565b5b60006118958582860161129b565b92505060206118a68582860161129b565b9150509250929050565b600060c0820190506118c56000830189611470565b6118d2602083018861149a565b81810360408301526118e4818761162f565b90506118f36060830186611668565b6119006080830185611668565b81810360a0830152611912818461162f565b9050979650505050505050565b600081519050919050565b600082825260208201905092915050565b6000819050602082019050919050565b600060c083016000830151611963600086018261130f565b50602083015161197660208601826113c9565b506040830151848203604086015261198e8282611375565b91505060608301516119a360608601826113ba565b5060808301516119b660808601826113ba565b5060a083015184820360a08601526119ce8282611375565b9150508091505092915050565b60006119e7838361194b565b905092915050565b6000602082019050919050565b6000611a078261191f565b611a11818561192a565b935083602082028501611a238561193b565b8060005b85811015611a5f5784840389528151611a4085826119db565b9450611a4b836119ef565b925060208a01995050600181019050611a27565b50829750879550505050505092915050565b60006020820190508181036000830152611a8b81846119fc565b905092915050565b60008060008060808587031215611aad57611aac611270565b5b6000611abb8782880161129b565b9450506020611acc8782880161129b565b935050604085013567ffffffffffffffff811115611aed57611aec611275565b5b611af9878288016117e6565b925050606085013567ffffffffffffffff811115611b1a57611b19611275565b5b611b26878288016117e6565b91505092959194509250565b7f4e487b7100000000000000000000000000000000000000000000000000000000600052602260045260246000fd5b60006002820490506001821680611b7957607f821691505b602082108103611b8c57611b8b611b32565b5b50919050565b7f4e487b7100000000000000000000000000000000000000000000000000000000600052603260045260246000fd5b7f4e6f7420616e2069737375657200000000000000000000000000000000000000600082015250565b6000611bf7600d8361161e565b9150611c0282611bc1565b602082019050919050565b60006020820190508181036000830152611c2681611bea565b9050919050565b7f4e487b7100000000000000000000000000000000000000000000000000000000600052601160045260246000fd5b6000611c678261127a565b9150611c728361127a565b9250828201905080821115611c8a57611c89611c2d565b5b92915050565b60008190508160005260206000209050919050565b60006020601f8301049050919050565b600082821b905092915050565b600060088302611cf27fffffffffffffffffffffffffffffffffffffffffffffffffffffffffffffffff82611cb5565b611cfc8683611cb5565b95508019841693508086168417925050509392505050565b6000819050919050565b6000611d39611d34611d2f8461127a565b611d14565b61127a565b9050919050565b6000819050919050565b611d5383611d1e565b611d67611d5f82611d40565b848454611cc2565b825550505050565b600090565b611d7c611d6f565b611d87818484611d4a565b505050565b5b81811015611dab57611da0600082611d74565b600181019050611d8d565b5050565b601f821115611df057611dc181611c90565b611dca84611ca5565b81016020851015611dd9578190505b611ded611de585611ca5565b830182611d8c565b50505b505050565b600082821c905092915050565b6000611e1360001984600802611df5565b1980831691505092915050565b6000611e2c8383611e02565b9150826002028217905092915050565b611e458261131e565b67ffffffffffffffff811115611e5e57611e5d6116e9565b5b611e688254611b61565b611e73828285611daf565b600060209050601f831160018114611ea65760008415611e94578287015190505b611e9e8582611e20565b865550611f06565b601f198416611eb486611c90565b60005b82811015611edc57848901518255600182019150602085019450602081019050611eb7565b86831015611ef95784890151611ef5601f891682611e02565b8355505b6001600288020188555050505b505050505050565b6000611f198261127a565b9150611f248361127a565b9250828202611f328161127a565b91508282048414831517611f4957611f48611c2d565b5b5092915050565b7f4f6e6c7920746865206973737565722063616e20636c6f73652074686520746560008201527f6e64657200000000000000000000000000000000000000000000000000000000602082015250565b6000611fac60248361161e565b9150611fb782611f50565b604082019050919050565b60006020820190508181036000830152611fdb81611f9f565b9050919050565b7f54656e64657220616c726561647920636c6f7365640000000000000000000000600082015250565b600061201860158361161e565b915061202382611fe2565b602082019050919050565b600060208201905081810360008301526120478161200b565b9050919050565b60006120598261127a565b91507fffffffffffffffffffffffffffffffffffffffffffffffffffffffffffffffff820361208b5761208a611c2d565b5b600182019050919050565b60006040820190506120ab600083018561149a565b6120b8602083018461149a565b9392505050565b60006120ca8261127a565b91506120d58361127a565b92508282039050818111156120ed576120ec611c2d565b5b9291505056fea2646970667358221220d0ef4c9a6fb1aaae8c195648f142f78cca3dd2492541d067b5938a5da776c7e764736f6c63430008180033",
  "linkReferences": {},
  "deployedLinkReferences": {}
}