{
  "_format": "hh-sol-artifact-1",
  "contractName": "Campaign",
  "sourceName": "contracts/giv3_v5.sol",
  "abi": [
    {
      "inputs": [
        {
          "internalType": "uint256",
          "name": "minimum",
          "type": "uint256"
        },
        {
          "internalType": "uint256",
          "name": "campaignGoal",
          "type": "uint256"
        },
        {
          "internalType": "address payable",
          "name": "creator",
          "type": "address"
        }
      ],
      "stateMutability": "nonpayable",
      "type": "constructor"
    },
    {
      "inputs": [],
      "name": "ReentrancyGuardReentrantCall",
      "type": "error"
    },
    {
      "anonymous": false,
      "inputs": [
        {
          "indexed": false,
          "internalType": "uint256",
          "name": "totalDonations",
          "type": "uint256"
        }
      ],
      "name": "GoalReached",
      "type": "event"
    },
    {
      "anonymous": false,
      "inputs": [
        {
          "indexed": false,
          "internalType": "uint256",
          "name": "amount",
          "type": "uint256"
        },
        {
          "indexed": false,
          "internalType": "address",
          "name": "company",
          "type": "address"
        }
      ],
      "name": "MatchingFundsAdded",
      "type": "event"
    },
    {
      "anonymous": false,
      "inputs": [
        {
          "indexed": false,
          "internalType": "uint256",
          "name": "amount",
          "type": "uint256"
        },
        {
          "indexed": false,
          "internalType": "address",
          "name": "donor",
          "type": "address"
        }
      ],
      "name": "MatchingFundsUtilized",
      "type": "event"
    },
    {
      "anonymous": false,
      "inputs": [
        {
          "indexed": false,
          "internalType": "uint256",
          "name": "amount",
          "type": "uint256"
        },
        {
          "indexed": false,
          "internalType": "address",
          "name": "recipient",
          "type": "address"
        }
      ],
      "name": "PartialFundsWithdrawn",
      "type": "event"
    },
    {
      "inputs": [],
      "name": "addMatchingFunds",
      "outputs": [],
      "stateMutability": "payable",
      "type": "function"
    },
    {
      "inputs": [],
      "name": "donate",
      "outputs": [],
      "stateMutability": "payable",
      "type": "function"
    },
    {
      "inputs": [
        {
          "internalType": "address",
          "name": "",
          "type": "address"
        }
      ],
      "name": "donations",
      "outputs": [
        {
          "internalType": "uint256",
          "name": "value",
          "type": "uint256"
        },
        {
          "internalType": "address",
          "name": "donor",
          "type": "address"
        }
      ],
      "stateMutability": "view",
      "type": "function"
    },
    {
      "inputs": [
        {
          "internalType": "uint256",
          "name": "",
          "type": "uint256"
        }
      ],
      "name": "donors",
      "outputs": [
        {
          "internalType": "address",
          "name": "",
          "type": "address"
        }
      ],
      "stateMutability": "view",
      "type": "function"
    },
    {
      "inputs": [],
      "name": "getDonors",
      "outputs": [
        {
          "internalType": "address[]",
          "name": "",
          "type": "address[]"
        }
      ],
      "stateMutability": "view",
      "type": "function"
    },
    {
      "inputs": [],
      "name": "goal",
      "outputs": [
        {
          "internalType": "uint256",
          "name": "",
          "type": "uint256"
        }
      ],
      "stateMutability": "view",
      "type": "function"
    },
    {
      "inputs": [],
      "name": "goalReached",
      "outputs": [
        {
          "internalType": "bool",
          "name": "",
          "type": "bool"
        }
      ],
      "stateMutability": "view",
      "type": "function"
    },
    {
      "inputs": [
        {
          "internalType": "uint256",
          "name": "_percentage",
          "type": "uint256"
        }
      ],
      "name": "immediateWithdraw",
      "outputs": [],
      "stateMutability": "nonpayable",
      "type": "function"
    },
    {
      "inputs": [],
      "name": "manager",
      "outputs": [
        {
          "internalType": "address payable",
          "name": "",
          "type": "address"
        }
      ],
      "stateMutability": "view",
      "type": "function"
    },
    {
      "inputs": [],
      "name": "matchingFundsCompany",
      "outputs": [
        {
          "internalType": "address payable",
          "name": "",
          "type": "address"
        }
      ],
      "stateMutability": "view",
      "type": "function"
    },
    {
      "inputs": [],
      "name": "matchingFundsTotal",
      "outputs": [
        {
          "internalType": "uint256",
          "name": "",
          "type": "uint256"
        }
      ],
      "stateMutability": "view",
      "type": "function"
    },
    {
      "inputs": [],
      "name": "matchingFundsUsed",
      "outputs": [
        {
          "internalType": "uint256",
          "name": "",
          "type": "uint256"
        }
      ],
      "stateMutability": "view",
      "type": "function"
    },
    {
      "inputs": [],
      "name": "minimumDonation",
      "outputs": [
        {
          "internalType": "uint256",
          "name": "",
          "type": "uint256"
        }
      ],
      "stateMutability": "view",
      "type": "function"
    },
    {
      "inputs": [],
      "name": "refund",
      "outputs": [],
      "stateMutability": "nonpayable",
      "type": "function"
    },
    {
      "inputs": [],
      "name": "refundMatchingFunds",
      "outputs": [],
      "stateMutability": "nonpayable",
      "type": "function"
    },
    {
      "inputs": [
        {
          "internalType": "address payable",
          "name": "companyAddress",
          "type": "address"
        }
      ],
      "name": "setMatchingFundsCompany",
      "outputs": [],
      "stateMutability": "nonpayable",
      "type": "function"
    },
    {
      "inputs": [],
      "name": "totalDonations",
      "outputs": [
        {
          "internalType": "uint256",
          "name": "",
          "type": "uint256"
        }
      ],
      "stateMutability": "view",
      "type": "function"
    },
    {
      "inputs": [],
      "name": "withdrawTotalFunds",
      "outputs": [],
      "stateMutability": "nonpayable",
      "type": "function"
    }
  ],
  "bytecode": "0x608060405260006009556000600a553480156200001b57600080fd5b5060405162001efd38038062001efd833981810160405281019062000041919062000161565b600160008190555080600160006101000a81548173ffffffffffffffffffffffffffffffffffffffff021916908373ffffffffffffffffffffffffffffffffffffffff16021790555082600281905550816003819055506000600560006101000a81548160ff021916908315150217905550505050620001bd565b600080fd5b6000819050919050565b620000d681620000c1565b8114620000e257600080fd5b50565b600081519050620000f681620000cb565b92915050565b600073ffffffffffffffffffffffffffffffffffffffff82169050919050565b60006200012982620000fc565b9050919050565b6200013b816200011c565b81146200014757600080fd5b50565b6000815190506200015b8162000130565b92915050565b6000806000606084860312156200017d576200017c620000bc565b5b60006200018d86828701620000e5565b9350506020620001a086828701620000e5565b9250506040620001b3868287016200014a565b9150509250925092565b611d3080620001cd6000396000f3fe6080604052600436106101095760003560e01c80638b760ab511610095578063b9c0ea6c11610064578063b9c0ea6c14610311578063cc6cb19a1461031b578063de2ed89314610359578063e928c4cb14610384578063ed88c68e146103ad57610109565b80638b760ab51461027957806396d8f4f31461029057806396f300d4146102bb5780639bf2da68146102e657610109565b80634abfa163116100dc5780634abfa163146101ba578063590e1ae3146101f7578063778bafb11461020e5780637d3d6522146102375780638250dd0d1461026257610109565b80632631ff1d1461010e5780634019388314610139578063476be14314610164578063481c6a751461018f575b600080fd5b34801561011a57600080fd5b506101236103b7565b60405161013091906112b7565b60405180910390f35b34801561014557600080fd5b5061014e6103dd565b60405161015b91906112eb565b60405180910390f35b34801561017057600080fd5b506101796103e3565b60405161018691906112eb565b60405180910390f35b34801561019b57600080fd5b506101a46103e9565b6040516101b191906112b7565b60405180910390f35b3480156101c657600080fd5b506101e160048036038101906101dc9190611337565b61040f565b6040516101ee9190611385565b60405180910390f35b34801561020357600080fd5b5061020c61044e565b005b34801561021a57600080fd5b5061023560048036038101906102309190611337565b61061b565b005b34801561024357600080fd5b5061024c61083e565b60405161025991906113bb565b60405180910390f35b34801561026e57600080fd5b50610277610851565b005b34801561028557600080fd5b5061028e610a0c565b005b34801561029c57600080fd5b506102a5610bc4565b6040516102b291906112eb565b60405180910390f35b3480156102c757600080fd5b506102d0610bca565b6040516102dd9190611494565b60405180910390f35b3480156102f257600080fd5b506102fb610c58565b60405161030891906112eb565b60405180910390f35b610319610c5e565b005b34801561032757600080fd5b50610342600480360381019061033d91906114e2565b610d87565b60405161035092919061150f565b60405180910390f35b34801561036557600080fd5b5061036e610dcb565b60405161037b91906112eb565b60405180910390f35b34801561039057600080fd5b506103ab60048036038101906103a69190611564565b610dd1565b005b6103b5610f36565b005b600860009054906101000a900473ffffffffffffffffffffffffffffffffffffffff1681565b60035481565b600a5481565b600160009054906101000a900473ffffffffffffffffffffffffffffffffffffffff1681565b6007818154811061041f57600080fd5b906000526020600020016000915054906101000a900473ffffffffffffffffffffffffffffffffffffffff1681565b600160009054906101000a900473ffffffffffffffffffffffffffffffffffffffff1673ffffffffffffffffffffffffffffffffffffffff163373ffffffffffffffffffffffffffffffffffffffff16146104de576040517f08c379a00000000000000000000000000000000000000000000000000000000081526004016104d590611614565b60405180910390fd5b600560009054906101000a900460ff161561052e576040517f08c379a0000000000000000000000000000000000000000000000000000000008152600401610525906116a6565b60405180910390fd5b60005b60078054905081101561061857600060078281548110610554576105536116c6565b5b9060005260206000200160009054906101000a900473ffffffffffffffffffffffffffffffffffffffff1690508073ffffffffffffffffffffffffffffffffffffffff166108fc600660008473ffffffffffffffffffffffffffffffffffffffff1673ffffffffffffffffffffffffffffffffffffffff168152602001908152602001600020600001549081150290604051600060405180830381858888f19350505050158015610609573d6000803e3d6000fd5b50508080600101915050610531565b50565b600160009054906101000a900473ffffffffffffffffffffffffffffffffffffffff1673ffffffffffffffffffffffffffffffffffffffff163373ffffffffffffffffffffffffffffffffffffffff16146106ab576040517f08c379a00000000000000000000000000000000000000000000000000000000081526004016106a290611614565b60405180910390fd5b6106b3611226565b600560009054906101000a900460ff16610702576040517f08c379a00000000000000000000000000000000000000000000000000000000081526004016106f990611767565b60405180910390fd5b600081118015610713575060648111155b610752576040517f08c379a0000000000000000000000000000000000000000000000000000000008152600401610749906117d3565b60405180910390fd5b6000606482476107629190611822565b61076c9190611893565b9050600160009054906101000a900473ffffffffffffffffffffffffffffffffffffffff1673ffffffffffffffffffffffffffffffffffffffff166108fc829081150290604051600060405180830381858888f193505050501580156107d6573d6000803e3d6000fd5b507f852c7b76754b8573c4d0ce6fa913a79bbb88e7f1cc6aff9f81b844101bbe2bed81600160009054906101000a900473ffffffffffffffffffffffffffffffffffffffff1660405161082a929190611923565b60405180910390a15061083b61126c565b50565b600560009054906101000a900460ff1681565b610859611226565b600160009054906101000a900473ffffffffffffffffffffffffffffffffffffffff1673ffffffffffffffffffffffffffffffffffffffff163373ffffffffffffffffffffffffffffffffffffffff16146108e9576040517f08c379a00000000000000000000000000000000000000000000000000000000081526004016108e090611614565b60405180910390fd5b600560009054906101000a900460ff16610938576040517f08c379a000000000000000000000000000000000000000000000000000000000815260040161092f90611998565b60405180910390fd5b6000479050600160009054906101000a900473ffffffffffffffffffffffffffffffffffffffff1673ffffffffffffffffffffffffffffffffffffffff166108fc829081150290604051600060405180830381858888f193505050501580156109a5573d6000803e3d6000fd5b507f852c7b76754b8573c4d0ce6fa913a79bbb88e7f1cc6aff9f81b844101bbe2bed81600160009054906101000a900473ffffffffffffffffffffffffffffffffffffffff166040516109f9929190611923565b60405180910390a150610a0a61126c565b565b600860009054906101000a900473ffffffffffffffffffffffffffffffffffffffff1673ffffffffffffffffffffffffffffffffffffffff163373ffffffffffffffffffffffffffffffffffffffff1614610a9c576040517f08c379a0000000000000000000000000000000000000000000000000000000008152600401610a9390611a2a565b60405180910390fd5b610aa4611226565b600a5460095411610aea576040517f08c379a0000000000000000000000000000000000000000000000000000000008152600401610ae190611abc565b60405180910390fd5b6000600a54600954610afc9190611adc565b9050600860009054906101000a900473ffffffffffffffffffffffffffffffffffffffff1673ffffffffffffffffffffffffffffffffffffffff166108fc829081150290604051600060405180830381858888f19350505050158015610b66573d6000803e3d6000fd5b5060006009819055506000600a819055506000600860006101000a81548173ffffffffffffffffffffffffffffffffffffffff021916908373ffffffffffffffffffffffffffffffffffffffff16021790555050610bc261126c565b565b60025481565b60606007805480602002602001604051908101604052809291908181526020018280548015610c4e57602002820191906000526020600020905b8160009054906101000a900473ffffffffffffffffffffffffffffffffffffffff1673ffffffffffffffffffffffffffffffffffffffff1681526020019060010190808311610c04575b5050505050905090565b60095481565b600860009054906101000a900473ffffffffffffffffffffffffffffffffffffffff1673ffffffffffffffffffffffffffffffffffffffff163373ffffffffffffffffffffffffffffffffffffffff1614610cee576040517f08c379a0000000000000000000000000000000000000000000000000000000008152600401610ce590611a2a565b60405180910390fd5b600060095414610d33576040517f08c379a0000000000000000000000000000000000000000000000000000000008152600401610d2a90611b82565b60405180910390fd5b3460096000828254610d459190611ba2565b925050819055507fcd5ac6191547f36ca1c9d9a456a4bfa5e4e841e3ecfb204771d521bf35eb7a483433604051610d7d92919061150f565b60405180910390a1565b60066020528060005260406000206000915090508060000154908060010160009054906101000a900473ffffffffffffffffffffffffffffffffffffffff16905082565b60045481565b600160009054906101000a900473ffffffffffffffffffffffffffffffffffffffff1673ffffffffffffffffffffffffffffffffffffffff163373ffffffffffffffffffffffffffffffffffffffff1614610e61576040517f08c379a0000000000000000000000000000000000000000000000000000000008152600401610e5890611614565b60405180910390fd5b600073ffffffffffffffffffffffffffffffffffffffff16600860009054906101000a900473ffffffffffffffffffffffffffffffffffffffff1673ffffffffffffffffffffffffffffffffffffffff1614610ef2576040517f08c379a0000000000000000000000000000000000000000000000000000000008152600401610ee990611c48565b60405180910390fd5b80600860006101000a81548173ffffffffffffffffffffffffffffffffffffffff021916908373ffffffffffffffffffffffffffffffffffffffff16021790555050565b610f3e611226565b600254341015610f83576040517f08c379a0000000000000000000000000000000000000000000000000000000008152600401610f7a90611cda565b60405180910390fd5b6000600a54600954118015610fe75750600073ffffffffffffffffffffffffffffffffffffffff16600860009054906101000a900473ffffffffffffffffffffffffffffffffffffffff1673ffffffffffffffffffffffffffffffffffffffff1614155b1561106f57600a54600954610ffc9190611adc565b34111561101857600a546009546110139190611adc565b61101a565b345b905080600a600082825461102e9190611ba2565b925050819055507f9c50ac533763c08803a794ecafb380a37c6e329612a6ed552a813c821098a09f813360405161106692919061150f565b60405180910390a15b6000813461107d9190611ba2565b90506000600660003373ffffffffffffffffffffffffffffffffffffffff1673ffffffffffffffffffffffffffffffffffffffff168152602001908152602001600020600001540361112d576007339080600181540180825580915050600190039060005260206000200160009091909190916101000a81548173ffffffffffffffffffffffffffffffffffffffff021916908373ffffffffffffffffffffffffffffffffffffffff1602179055505b80600660003373ffffffffffffffffffffffffffffffffffffffff1673ffffffffffffffffffffffffffffffffffffffff168152602001908152602001600020600001600082825461117f9190611ba2565b9250508190555080600460008282546111989190611ba2565b92505081905550600354600454101580156111c05750600560009054906101000a900460ff16155b1561121a576001600560006101000a81548160ff0219169083151502179055507ffbfd8ab7c24300fa9888cd721c8565a7da56759384781283684dcf7c7c4a846b60045460405161121191906112eb565b60405180910390a15b505061122461126c565b565b600260005403611262576040517f3ee5aeb500000000000000000000000000000000000000000000000000000000815260040160405180910390fd5b6002600081905550565b6001600081905550565b600073ffffffffffffffffffffffffffffffffffffffff82169050919050565b60006112a182611276565b9050919050565b6112b181611296565b82525050565b60006020820190506112cc60008301846112a8565b92915050565b6000819050919050565b6112e5816112d2565b82525050565b600060208201905061130060008301846112dc565b92915050565b600080fd5b611314816112d2565b811461131f57600080fd5b50565b6000813590506113318161130b565b92915050565b60006020828403121561134d5761134c611306565b5b600061135b84828501611322565b91505092915050565b600061136f82611276565b9050919050565b61137f81611364565b82525050565b600060208201905061139a6000830184611376565b92915050565b60008115159050919050565b6113b5816113a0565b82525050565b60006020820190506113d060008301846113ac565b92915050565b600081519050919050565b600082825260208201905092915050565b6000819050602082019050919050565b61140b81611364565b82525050565b600061141d8383611402565b60208301905092915050565b6000602082019050919050565b6000611441826113d6565b61144b81856113e1565b9350611456836113f2565b8060005b8381101561148757815161146e8882611411565b975061147983611429565b92505060018101905061145a565b5085935050505092915050565b600060208201905081810360008301526114ae8184611436565b905092915050565b6114bf81611364565b81146114ca57600080fd5b50565b6000813590506114dc816114b6565b92915050565b6000602082840312156114f8576114f7611306565b5b6000611506848285016114cd565b91505092915050565b600060408201905061152460008301856112dc565b6115316020830184611376565b9392505050565b61154181611296565b811461154c57600080fd5b50565b60008135905061155e81611538565b92915050565b60006020828403121561157a57611579611306565b5b60006115888482850161154f565b91505092915050565b600082825260208201905092915050565b7f4f6e6c79207468652063616d706169676e206d616e616765722063616e20636160008201527f6c6c20746869732e000000000000000000000000000000000000000000000000602082015250565b60006115fe602883611591565b9150611609826115a2565b604082019050919050565b6000602082019050818103600083015261162d816115f1565b9050919050565b7f43616d706169676e20676f616c2077617320726561636865642c2063616e6e6f60008201527f7420726566756e642e0000000000000000000000000000000000000000000000602082015250565b6000611690602983611591565b915061169b82611634565b604082019050919050565b600060208201905081810360008301526116bf81611683565b9050919050565b7f4e487b7100000000000000000000000000000000000000000000000000000000600052603260045260246000fd5b7f476f616c206e6f74207265616368656420796574206f72207061727469616c2060008201527f7769746864726177616c20636f6e646974696f6e206e6f74206d65742e000000602082015250565b6000611751603d83611591565b915061175c826116f5565b604082019050919050565b6000602082019050818103600083015261178081611744565b9050919050565b7f496e76616c6964207769746864726177616c2070657263656e746167652e0000600082015250565b60006117bd601e83611591565b91506117c882611787565b602082019050919050565b600060208201905081810360008301526117ec816117b0565b9050919050565b7f4e487b7100000000000000000000000000000000000000000000000000000000600052601160045260246000fd5b600061182d826112d2565b9150611838836112d2565b9250828202611846816112d2565b9150828204841483151761185d5761185c6117f3565b5b5092915050565b7f4e487b7100000000000000000000000000000000000000000000000000000000600052601260045260246000fd5b600061189e826112d2565b91506118a9836112d2565b9250826118b9576118b8611864565b5b828204905092915050565b6000819050919050565b60006118e96118e46118df84611276565b6118c4565b611276565b9050919050565b60006118fb826118ce565b9050919050565b600061190d826118f0565b9050919050565b61191d81611902565b82525050565b600060408201905061193860008301856112dc565b6119456020830184611914565b9392505050565b7f476f616c206e6f742072656163686564207965742e0000000000000000000000600082015250565b6000611982601583611591565b915061198d8261194c565b602082019050919050565b600060208201905081810360008301526119b181611975565b9050919050565b7f4f6e6c7920746865206d61746368696e672066756e647320636f6d70616e792060008201527f63616e2063616c6c20746869732e000000000000000000000000000000000000602082015250565b6000611a14602e83611591565b9150611a1f826119b8565b604082019050919050565b60006020820190508181036000830152611a4381611a07565b9050919050565b7f4e6f2066756e647320746f20726566756e64206f7220616c726561647920757460008201527f696c697a65642e00000000000000000000000000000000000000000000000000602082015250565b6000611aa6602783611591565b9150611ab182611a4a565b604082019050919050565b60006020820190508181036000830152611ad581611a99565b9050919050565b6000611ae7826112d2565b9150611af2836112d2565b9250828203905081811115611b0a57611b096117f3565b5b92915050565b7f4d61746368696e672066756e64732063616e206f6e6c7920626520616464656460008201527f206f6e63652e0000000000000000000000000000000000000000000000000000602082015250565b6000611b6c602683611591565b9150611b7782611b10565b604082019050919050565b60006020820190508181036000830152611b9b81611b5f565b9050919050565b6000611bad826112d2565b9150611bb8836112d2565b9250828201905080821115611bd057611bcf6117f3565b5b92915050565b7f4d61746368696e672066756e647320636f6d70616e7920616c7265616479207360008201527f65742e0000000000000000000000000000000000000000000000000000000000602082015250565b6000611c32602383611591565b9150611c3d82611bd6565b604082019050919050565b60006020820190508181036000830152611c6181611c25565b9050919050565b7f446f6e6174696f6e2062656c6f77206d696e696d756d20726571756972656d6560008201527f6e742e0000000000000000000000000000000000000000000000000000000000602082015250565b6000611cc4602383611591565b9150611ccf82611c68565b604082019050919050565b60006020820190508181036000830152611cf381611cb7565b905091905056fea2646970667358221220d73bc1aacae7d89830ed23f159a04726c9277ad67d3626cd97a9aa0491b61e3364736f6c63430008180033",
  "linkReferences": {},
  "deployedLinkReferences": {}
}